{
  "contractName": "CryptoBallers",
  "abi": [
    {
      "constant": true,
      "inputs": [
        {
          "name": "interfaceId",
          "type": "bytes4"
        }
      ],
      "name": "supportsInterface",
      "outputs": [
        {
          "name": "",
          "type": "bool"
        }
      ],
      "payable": false,
      "stateMutability": "view",
      "type": "function",
      "signature": "0x01ffc9a7"
    },
    {
      "constant": true,
      "inputs": [
        {
          "name": "tokenId",
          "type": "uint256"
        }
      ],
      "name": "getApproved",
      "outputs": [
        {
          "name": "",
          "type": "address"
        }
      ],
      "payable": false,
      "stateMutability": "view",
      "type": "function",
      "signature": "0x081812fc"
    },
    {
      "constant": false,
      "inputs": [
        {
          "name": "to",
          "type": "address"
        },
        {
          "name": "tokenId",
          "type": "uint256"
        }
      ],
      "name": "approve",
      "outputs": [],
      "payable": false,
      "stateMutability": "nonpayable",
      "type": "function",
      "signature": "0x095ea7b3"
    },
    {
      "constant": true,
      "inputs": [
        {
          "name": "",
          "type": "address"
        }
      ],
      "name": "claimedFreeBaller",
      "outputs": [
        {
          "name": "",
          "type": "bool"
        }
      ],
      "payable": false,
      "stateMutability": "view",
      "type": "function",
      "signature": "0x211ecee9"
    },
    {
      "constant": false,
      "inputs": [
        {
          "name": "from",
          "type": "address"
        },
        {
          "name": "to",
          "type": "address"
        },
        {
          "name": "tokenId",
          "type": "uint256"
        }
      ],
      "name": "transferFrom",
      "outputs": [],
      "payable": false,
      "stateMutability": "nonpayable",
      "type": "function",
      "signature": "0x23b872dd"
    },
    {
      "constant": false,
      "inputs": [
        {
          "name": "from",
          "type": "address"
        },
        {
          "name": "to",
          "type": "address"
        },
        {
          "name": "tokenId",
          "type": "uint256"
        }
      ],
      "name": "safeTransferFrom",
      "outputs": [],
      "payable": false,
      "stateMutability": "nonpayable",
      "type": "function",
      "signature": "0x42842e0e"
    },
    {
      "constant": true,
      "inputs": [
        {
          "name": "tokenId",
          "type": "uint256"
        }
      ],
      "name": "ownerOf",
      "outputs": [
        {
          "name": "",
          "type": "address"
        }
      ],
      "payable": false,
      "stateMutability": "view",
      "type": "function",
      "signature": "0x6352211e"
    },
    {
      "constant": true,
      "inputs": [
        {
          "name": "owner",
          "type": "address"
        }
      ],
      "name": "balanceOf",
      "outputs": [
        {
          "name": "",
          "type": "uint256"
        }
      ],
      "payable": false,
      "stateMutability": "view",
      "type": "function",
      "signature": "0x70a08231"
    },
    {
      "constant": true,
      "inputs": [
        {
          "name": "",
          "type": "address"
        }
      ],
      "name": "ownersToNumberOfBallers",
      "outputs": [
        {
          "name": "",
          "type": "uint256"
        }
      ],
      "payable": false,
      "stateMutability": "view",
      "type": "function",
      "signature": "0x95ea1c4a"
    },
    {
      "constant": true,
      "inputs": [
        {
          "name": "",
          "type": "uint256"
        }
      ],
      "name": "ballers",
      "outputs": [
        {
          "name": "name",
          "type": "string"
        },
        {
          "name": "level",
          "type": "uint256"
        },
        {
          "name": "offenseSkill",
          "type": "uint256"
        },
        {
          "name": "defenseSkill",
          "type": "uint256"
        },
        {
          "name": "winCount",
          "type": "uint256"
        },
        {
          "name": "lossCount",
          "type": "uint256"
        }
      ],
      "payable": false,
      "stateMutability": "view",
      "type": "function",
      "signature": "0x9eaf2bd0"
    },
    {
      "constant": false,
      "inputs": [
        {
          "name": "to",
          "type": "address"
        },
        {
          "name": "approved",
          "type": "bool"
        }
      ],
      "name": "setApprovalForAll",
      "outputs": [],
      "payable": false,
      "stateMutability": "nonpayable",
      "type": "function",
      "signature": "0xa22cb465"
    },
    {
      "constant": false,
      "inputs": [
        {
          "name": "from",
          "type": "address"
        },
        {
          "name": "to",
          "type": "address"
        },
        {
          "name": "tokenId",
          "type": "uint256"
        },
        {
          "name": "_data",
          "type": "bytes"
        }
      ],
      "name": "safeTransferFrom",
      "outputs": [],
      "payable": false,
      "stateMutability": "nonpayable",
      "type": "function",
      "signature": "0xb88d4fde"
    },
    {
      "constant": true,
      "inputs": [
        {
          "name": "",
          "type": "uint256"
        }
      ],
      "name": "ballersOwners",
      "outputs": [
        {
          "name": "",
          "type": "address"
        }
      ],
      "payable": false,
      "stateMutability": "view",
      "type": "function",
      "signature": "0xdb77de1a"
    },
    {
      "constant": true,
      "inputs": [
        {
          "name": "owner",
          "type": "address"
        },
        {
          "name": "operator",
          "type": "address"
        }
      ],
      "name": "isApprovedForAll",
      "outputs": [
        {
          "name": "",
          "type": "bool"
        }
      ],
      "payable": false,
      "stateMutability": "view",
      "type": "function",
      "signature": "0xe985e9c5"
    },
    {
      "inputs": [],
      "payable": false,
      "stateMutability": "nonpayable",
      "type": "constructor",
      "signature": "constructor"
    },
    {
      "anonymous": false,
      "inputs": [
        {
          "indexed": true,
          "name": "from",
          "type": "address"
        },
        {
          "indexed": true,
          "name": "to",
          "type": "address"
        },
        {
          "indexed": true,
          "name": "tokenId",
          "type": "uint256"
        }
      ],
      "name": "Transfer",
      "type": "event",
      "signature": "0xddf252ad1be2c89b69c2b068fc378daa952ba7f163c4a11628f55a4df523b3ef"
    },
    {
      "anonymous": false,
      "inputs": [
        {
          "indexed": true,
          "name": "owner",
          "type": "address"
        },
        {
          "indexed": true,
          "name": "approved",
          "type": "address"
        },
        {
          "indexed": true,
          "name": "tokenId",
          "type": "uint256"
        }
      ],
      "name": "Approval",
      "type": "event",
      "signature": "0x8c5be1e5ebec7d5bd14f71427d1e84f3dd0314c0f7b2291e5b200ac8c7c3b925"
    },
    {
      "anonymous": false,
      "inputs": [
        {
          "indexed": true,
          "name": "owner",
          "type": "address"
        },
        {
          "indexed": true,
          "name": "operator",
          "type": "address"
        },
        {
          "indexed": false,
          "name": "approved",
          "type": "bool"
        }
      ],
      "name": "ApprovalForAll",
      "type": "event",
      "signature": "0x17307eab39ab6107e8899845ad3d59bd9653f200f220920489ca2b5937696c31"
    },
    {
      "constant": true,
      "inputs": [],
      "name": "getNumBallers",
      "outputs": [
        {
          "name": "",
          "type": "uint256"
        }
      ],
      "payable": false,
      "stateMutability": "view",
      "type": "function",
      "signature": "0x8fc44845"
    },
    {
      "constant": false,
      "inputs": [],
      "name": "claimFreeBaller",
      "outputs": [],
      "payable": false,
      "stateMutability": "nonpayable",
      "type": "function",
      "signature": "0x2ec9a4c9"
    },
    {
      "constant": false,
      "inputs": [],
      "name": "buyBaller",
      "outputs": [],
      "payable": true,
      "stateMutability": "payable",
      "type": "function",
      "signature": "0x14d89576"
    },
    {
      "constant": false,
      "inputs": [
        {
          "name": "_ballerId",
          "type": "uint256"
        },
        {
          "name": "_opponentId",
          "type": "uint256"
        }
      ],
      "name": "playBall",
      "outputs": [],
      "payable": false,
      "stateMutability": "nonpayable",
      "type": "function",
      "signature": "0x3849defa"
    },
    {
      "constant": false,
      "inputs": [
        {
          "name": "_ballerId",
          "type": "uint256"
        },
        {
          "name": "_newName",
          "type": "string"
        }
      ],
      "name": "changeName",
      "outputs": [],
      "payable": false,
      "stateMutability": "nonpayable",
      "type": "function",
      "signature": "0xc39cbef1"
    },
    {
      "constant": true,
      "inputs": [
        {
          "name": "_owner",
          "type": "address"
        }
      ],
      "name": "getBallersByOwner",
      "outputs": [
        {
          "name": "",
          "type": "uint256[]"
        }
      ],
      "payable": false,
      "stateMutability": "view",
      "type": "function",
      "signature": "0xd96ef291"
    }
  ],
  "bytecode": "0x608060405267016345785d8a0000600a553480156200001d57600080fd5b506200005b6301ffc9a77c010000000000000000000000000000000000000000000000000000000002620000df640100000000026401000000009004565b620000986380ac58cd7c010000000000000000000000000000000000000000000000000000000002620000df640100000000026401000000009004565b33600560006101000a81548173ffffffffffffffffffffffffffffffffffffffff021916908373ffffffffffffffffffffffffffffffffffffffff1602179055506200019d565b63ffffffff7c010000000000000000000000000000000000000000000000000000000002817bffffffffffffffffffffffffffffffffffffffffffffffffffffffff1916141515156200013157600080fd5b6001600080837bffffffffffffffffffffffffffffffffffffffffffffffffffffffff19167bffffffffffffffffffffffffffffffffffffffffffffffffffffffff1916815260200190815260200160002060006101000a81548160ff02191690831515021790555050565b6124f980620001ad6000396000f300608060405260043610610112576000357c0100000000000000000000000000000000000000000000000000000000900463ffffffff16806301ffc9a714610117578063081812fc1461017b578063095ea7b3146101e857806314d8957614610235578063211ecee91461023f57806323b872dd1461029a5780632ec9a4c9146103075780633849defa1461031e57806342842e0e146103555780636352211e146103c257806370a082311461042f5780638fc448451461048657806395ea1c4a146104b15780639eaf2bd014610508578063a22cb465146105d1578063b88d4fde14610620578063c39cbef1146106d3578063d96ef29114610718578063db77de1a146107b0578063e985e9c51461081d575b600080fd5b34801561012357600080fd5b5061016160048036038101908080357bffffffffffffffffffffffffffffffffffffffffffffffffffffffff19169060200190929190505050610898565b604051808215151515815260200191505060405180910390f35b34801561018757600080fd5b506101a6600480360381019080803590602001909291905050506108ff565b604051808273ffffffffffffffffffffffffffffffffffffffff1673ffffffffffffffffffffffffffffffffffffffff16815260200191505060405180910390f35b3480156101f457600080fd5b50610233600480360381019080803573ffffffffffffffffffffffffffffffffffffffff16906020019092919080359060200190929190505050610950565b005b61023d610a95565b005b34801561024b57600080fd5b50610280600480360381019080803573ffffffffffffffffffffffffffffffffffffffff169060200190929190505050610c68565b604051808215151515815260200191505060405180910390f35b3480156102a657600080fd5b50610305600480360381019080803573ffffffffffffffffffffffffffffffffffffffff169060200190929190803573ffffffffffffffffffffffffffffffffffffffff16906020019092919080359060200190929190505050610c88565b005b34801561031357600080fd5b5061031c610d57565b005b34801561032a57600080fd5b506103536004803603810190808035906020019092919080359060200190929190505050610efc565b005b34801561036157600080fd5b506103c0600480360381019080803573ffffffffffffffffffffffffffffffffffffffff169060200190929190803573ffffffffffffffffffffffffffffffffffffffff16906020019092919080359060200190929190505050611447565b005b3480156103ce57600080fd5b506103ed60048036038101908080359060200190929190505050611468565b604051808273ffffffffffffffffffffffffffffffffffffffff1673ffffffffffffffffffffffffffffffffffffffff16815260200191505060405180910390f35b34801561043b57600080fd5b50610470600480360381019080803573ffffffffffffffffffffffffffffffffffffffff1690602001909291905050506114e6565b6040518082815260200191505060405180910390f35b34801561049257600080fd5b5061049b61156a565b6040518082815260200191505060405180910390f35b3480156104bd57600080fd5b506104f2600480360381019080803573ffffffffffffffffffffffffffffffffffffffff169060200190929190505050611577565b6040518082815260200191505060405180910390f35b34801561051457600080fd5b506105336004803603810190808035906020019092919050505061158f565b6040518080602001878152602001868152602001858152602001848152602001838152602001828103825288818151815260200191508051906020019080838360005b83811015610591578082015181840152602081019050610576565b50505050905090810190601f1680156105be5780820380516001836020036101000a031916815260200191505b5097505050505050505060405180910390f35b3480156105dd57600080fd5b5061061e600480360381019080803573ffffffffffffffffffffffffffffffffffffffff169060200190929190803515159060200190929190505050611672565b005b34801561062c57600080fd5b506106d1600480360381019080803573ffffffffffffffffffffffffffffffffffffffff169060200190929190803573ffffffffffffffffffffffffffffffffffffffff16906020019092919080359060200190929190803590602001908201803590602001908080601f01602080910402602001604051908101604052809392919081815260200183838082843782019150505050505091929192905050506117ae565b005b3480156106df57600080fd5b50610716600480360381019080803590602001909291908035906020019082018035906020019190919293919293905050506117d6565b005b34801561072457600080fd5b50610759600480360381019080803573ffffffffffffffffffffffffffffffffffffffff1690602001909291905050506118ad565b6040518080602001828103825283818151815260200191508051906020019060200280838360005b8381101561079c578082015181840152602081019050610781565b505050509050019250505060405180910390f35b3480156107bc57600080fd5b506107db600480360381019080803590602001909291905050506119df565b604051808273ffffffffffffffffffffffffffffffffffffffff1673ffffffffffffffffffffffffffffffffffffffff16815260200191505060405180910390f35b34801561082957600080fd5b5061087e600480360381019080803573ffffffffffffffffffffffffffffffffffffffff169060200190929190803573ffffffffffffffffffffffffffffffffffffffff169060200190929190505050611a12565b604051808215151515815260200191505060405180910390f35b6000806000837bffffffffffffffffffffffffffffffffffffffffffffffffffffffff19167bffffffffffffffffffffffffffffffffffffffffffffffffffffffff1916815260200190815260200160002060009054906101000a900460ff169050919050565b600061090a82611aa6565b151561091557600080fd5b6002600083815260200190815260200160002060009054906101000a900473ffffffffffffffffffffffffffffffffffffffff169050919050565b600061095b82611468565b90508073ffffffffffffffffffffffffffffffffffffffff168373ffffffffffffffffffffffffffffffffffffffff161415151561099857600080fd5b8073ffffffffffffffffffffffffffffffffffffffff163373ffffffffffffffffffffffffffffffffffffffff1614806109d857506109d78133611a12565b5b15156109e357600080fd5b826002600084815260200190815260200160002060006101000a81548173ffffffffffffffffffffffffffffffffffffffff021916908373ffffffffffffffffffffffffffffffffffffffff160217905550818373ffffffffffffffffffffffffffffffffffffffff168273ffffffffffffffffffffffffffffffffffffffff167f8c5be1e5ebec7d5bd14f71427d1e84f3dd0314c0f7b2291e5b200ac8c7c3b92560405160405180910390a4505050565b600a543410151515610b0f576040517f08c379a000000000000000000000000000000000000000000000000000000000815260040180806020018281038252601e8152602001807f4e6f7420656e6f75676820657468657220746f206275792042616c6c6572000081525060200191505060405180910390fd5b600560009054906101000a900473ffffffffffffffffffffffffffffffffffffffff1673ffffffffffffffffffffffffffffffffffffffff166108fc600a549081150290604051600060405180830381858888f19350505050158015610b79573d6000803e3d6000fd5b50610bbd6040805190810160405280600d81526020017f426f756768742042616c6c6572000000000000000000000000000000000000008152506001603280611b18565b3360086000600160068054905003815260200190815260200160002060006101000a81548173ffffffffffffffffffffffffffffffffffffffff021916908373ffffffffffffffffffffffffffffffffffffffff160217905550600960003373ffffffffffffffffffffffffffffffffffffffff1673ffffffffffffffffffffffffffffffffffffffff16815260200190815260200160002060008154809291906001019190505550565b60076020528060005260406000206000915054906101000a900460ff1681565b610c923382611bcd565b1515610c9d57600080fd5b600073ffffffffffffffffffffffffffffffffffffffff168273ffffffffffffffffffffffffffffffffffffffff1614151515610cd957600080fd5b610ce38382611c62565b610ced8382611d65565b610cf78282611e94565b808273ffffffffffffffffffffffffffffffffffffffff168473ffffffffffffffffffffffffffffffffffffffff167fddf252ad1be2c89b69c2b068fc378daa952ba7f163c4a11628f55a4df523b3ef60405160405180910390a4505050565b60001515600760003373ffffffffffffffffffffffffffffffffffffffff1673ffffffffffffffffffffffffffffffffffffffff16815260200190815260200160002060009054906101000a900460ff161515141515610db657600080fd5b6001600760003373ffffffffffffffffffffffffffffffffffffffff1673ffffffffffffffffffffffffffffffffffffffff16815260200190815260200160002060006101000a81548160ff021916908315150217905550610e516040805190810160405280600b81526020017f467265652042616c6c65720000000000000000000000000000000000000000008152506001601e80611b18565b3360086000600160068054905003815260200190815260200160002060006101000a81548173ffffffffffffffffffffffffffffffffffffffff021916908373ffffffffffffffffffffffffffffffffffffffff160217905550600960003373ffffffffffffffffffffffffffffffffffffffff1673ffffffffffffffffffffffffffffffffffffffff16815260200190815260200160002060008154809291906001019190505550565b6000806000846008600082815260200190815260200160002060009054906101000a900473ffffffffffffffffffffffffffffffffffffffff1673ffffffffffffffffffffffffffffffffffffffff163373ffffffffffffffffffffffffffffffffffffffff16141515610f6f57600080fd5b610f77611fee565b606403600686815481101515610f8957fe5b90600052602060002090600602016003015402610fa4611fee565b600688815481101515610fb357fe5b906000526020600020906006020160020154021015156113ae57600686815481101515610fdc57fe5b90600052602060002090600602016001016000815480929190600101919050555060068681548110151561100c57fe5b90600052602060002090600602016004016000815480929190600101919050555060068681548110151561103c57fe5b90600052602060002090600602016002016000815480929190600101919050555060068581548110151561106c57fe5b906000526020600020906006020160050160008154809291906001019190505550600560068781548110151561109e57fe5b90600052602060002090600602016001015414156113a9576112b86006878154811015156110c857fe5b906000526020600020906006020160c06040519081016040529081600082018054600181600116156101000203166002900480601f01602080910402602001604051908101604052809291908181526020018280546001816001161561010002031660029004801561117b5780601f106111505761010080835404028352916020019161117b565b820191906000526020600020905b81548152906001019060200180831161115e57829003601f168201915b50505050508152602001600182015481526020016002820154815260200160038201548152602001600482015481526020016005820154815250506006878154811015156111c557fe5b906000526020600020906006020160c06040519081016040529081600082018054600181600116156101000203166002900480601f0160208091040260200160405190810160405280929190818152602001828054600181600116156101000203166002900480156112785780601f1061124d57610100808354040283529160200191611278565b820191906000526020600020905b81548152906001019060200180831161125b57829003601f168201915b50505050508152602001600182015481526020016002820154815260200160038201548152602001600482015481526020016005820154815250506120ca565b9350935093506112ff6040805190810160405280600a81526020017f4e65772042616c6c657200000000000000000000000000000000000000000000815250858585611b18565b3360086000600160068054905003815260200190815260200160002060006101000a81548173ffffffffffffffffffffffffffffffffffffffff021916908373ffffffffffffffffffffffffffffffffffffffff160217905550600960003373ffffffffffffffffffffffffffffffffffffffff1673ffffffffffffffffffffffffffffffffffffffff168152602001908152602001600020600081548092919060010191905055505b61143f565b6006868154811015156113bd57fe5b9060005260206000209060060201600501600081548092919060010191905055506006858154811015156113ed57fe5b90600052602060002090600602016004016000815480929190600101919050555060068581548110151561141d57fe5b9060005260206000209060060201600301600081548092919060010191905055505b505050505050565b61146383838360206040519081016040528060008152506117ae565b505050565b6000806001600084815260200190815260200160002060009054906101000a900473ffffffffffffffffffffffffffffffffffffffff169050600073ffffffffffffffffffffffffffffffffffffffff168173ffffffffffffffffffffffffffffffffffffffff16141515156114dd57600080fd5b80915050919050565b60008073ffffffffffffffffffffffffffffffffffffffff168273ffffffffffffffffffffffffffffffffffffffff161415151561152357600080fd5b600360008373ffffffffffffffffffffffffffffffffffffffff1673ffffffffffffffffffffffffffffffffffffffff168152602001908152602001600020549050919050565b6000600680549050905090565b60096020528060005260406000206000915090505481565b60068181548110151561159e57fe5b9060005260206000209060060201600091509050806000018054600181600116156101000203166002900480601f01602080910402602001604051908101604052809291908181526020018280546001816001161561010002031660029004801561164a5780601f1061161f5761010080835404028352916020019161164a565b820191906000526020600020905b81548152906001019060200180831161162d57829003601f168201915b5050505050908060010154908060020154908060030154908060040154908060050154905086565b3373ffffffffffffffffffffffffffffffffffffffff168273ffffffffffffffffffffffffffffffffffffffff16141515156116ad57600080fd5b80600460003373ffffffffffffffffffffffffffffffffffffffff1673ffffffffffffffffffffffffffffffffffffffff16815260200190815260200160002060008473ffffffffffffffffffffffffffffffffffffffff1673ffffffffffffffffffffffffffffffffffffffff16815260200190815260200160002060006101000a81548160ff0219169083151502179055508173ffffffffffffffffffffffffffffffffffffffff163373ffffffffffffffffffffffffffffffffffffffff167f17307eab39ab6107e8899845ad3d59bd9653f200f220920489ca2b5937696c3183604051808215151515815260200191505060405180910390a35050565b6117b9848484610c88565b6117c584848484612131565b15156117d057600080fd5b50505050565b600283816006828154811015156117e957fe5b90600052602060002090600602016001015411151561180757600080fd5b846008600082815260200190815260200160002060009054906101000a900473ffffffffffffffffffffffffffffffffffffffff1673ffffffffffffffffffffffffffffffffffffffff163373ffffffffffffffffffffffffffffffffffffffff1614151561187557600080fd5b848460068881548110151561188657fe5b906000526020600020906006020160000191906118a49291906123a8565b50505050505050565b606080600080600960008673ffffffffffffffffffffffffffffffffffffffff1673ffffffffffffffffffffffffffffffffffffffff168152602001908152602001600020546040519080825280602002602001820160405280156119215781602001602082028038833980820191505090505b50925060009150600090505b6006805490508110156119d4578473ffffffffffffffffffffffffffffffffffffffff166008600083815260200190815260200160002060009054906101000a900473ffffffffffffffffffffffffffffffffffffffff1673ffffffffffffffffffffffffffffffffffffffff1614156119c7578083838151811015156119b057fe5b906020019060200201818152505081806001019250505b808060010191505061192d565b829350505050919050565b60086020528060005260406000206000915054906101000a900473ffffffffffffffffffffffffffffffffffffffff1681565b6000600460008473ffffffffffffffffffffffffffffffffffffffff1673ffffffffffffffffffffffffffffffffffffffff16815260200190815260200160002060008373ffffffffffffffffffffffffffffffffffffffff1673ffffffffffffffffffffffffffffffffffffffff16815260200190815260200160002060009054906101000a900460ff16905092915050565b6000806001600084815260200190815260200160002060009054906101000a900473ffffffffffffffffffffffffffffffffffffffff169050600073ffffffffffffffffffffffffffffffffffffffff168173ffffffffffffffffffffffffffffffffffffffff161415915050919050565b600660c060405190810160405280868152602001858152602001848152602001838152602001600081526020016000815250908060018154018082558091505090600182039060005260206000209060060201600090919290919091506000820151816000019080519060200190611b91929190612428565b506020820151816001015560408201518160020155606082015181600301556080820151816004015560a0820151816005015550505050505050565b600080611bd983611468565b90508073ffffffffffffffffffffffffffffffffffffffff168473ffffffffffffffffffffffffffffffffffffffff161480611c4857508373ffffffffffffffffffffffffffffffffffffffff16611c30846108ff565b73ffffffffffffffffffffffffffffffffffffffff16145b80611c595750611c588185611a12565b5b91505092915050565b8173ffffffffffffffffffffffffffffffffffffffff16611c8282611468565b73ffffffffffffffffffffffffffffffffffffffff16141515611ca457600080fd5b600073ffffffffffffffffffffffffffffffffffffffff166002600083815260200190815260200160002060009054906101000a900473ffffffffffffffffffffffffffffffffffffffff1673ffffffffffffffffffffffffffffffffffffffff16141515611d615760006002600083815260200190815260200160002060006101000a81548173ffffffffffffffffffffffffffffffffffffffff021916908373ffffffffffffffffffffffffffffffffffffffff1602179055505b5050565b8173ffffffffffffffffffffffffffffffffffffffff16611d8582611468565b73ffffffffffffffffffffffffffffffffffffffff16141515611da757600080fd5b611dfa6001600360008573ffffffffffffffffffffffffffffffffffffffff1673ffffffffffffffffffffffffffffffffffffffff1681526020019081526020016000205461235390919063ffffffff16565b600360008473ffffffffffffffffffffffffffffffffffffffff1673ffffffffffffffffffffffffffffffffffffffff1681526020019081526020016000208190555060006001600083815260200190815260200160002060006101000a81548173ffffffffffffffffffffffffffffffffffffffff021916908373ffffffffffffffffffffffffffffffffffffffff1602179055505050565b600073ffffffffffffffffffffffffffffffffffffffff166001600083815260200190815260200160002060009054906101000a900473ffffffffffffffffffffffffffffffffffffffff1673ffffffffffffffffffffffffffffffffffffffff16141515611f0257600080fd5b816001600083815260200190815260200160002060006101000a81548173ffffffffffffffffffffffffffffffffffffffff021916908373ffffffffffffffffffffffffffffffffffffffff160217905550611fa76001600360008573ffffffffffffffffffffffffffffffffffffffff1673ffffffffffffffffffffffffffffffffffffffff1681526020019081526020016000205461237490919063ffffffff16565b600360008473ffffffffffffffffffffffffffffffffffffffff1673ffffffffffffffffffffffffffffffffffffffff168152602001908152602001600020819055505050565b600060644233604051602001808381526020018273ffffffffffffffffffffffffffffffffffffffff1673ffffffffffffffffffffffffffffffffffffffff166c01000000000000000000000000028152601401925050506040516020818303038152906040526040518082805190602001908083835b60208310151561208a5780518252602082019150602081019050602083039250612065565b6001836020036101000a0380198251168184511680821785525050505050509050019150506040518091039020600190048115156120c457fe5b06905090565b600080600080600080600287602001518960200151018115156120e957fe5b0492506002876040015189604001510181151561210257fe5b0491506002876060015189606001510181151561211b57fe5b0490508282829550955095505050509250925092565b6000806121538573ffffffffffffffffffffffffffffffffffffffff16612395565b1515612162576001915061234a565b8473ffffffffffffffffffffffffffffffffffffffff1663150b7a02338887876040518563ffffffff167c0100000000000000000000000000000000000000000000000000000000028152600401808573ffffffffffffffffffffffffffffffffffffffff1673ffffffffffffffffffffffffffffffffffffffff1681526020018473ffffffffffffffffffffffffffffffffffffffff1673ffffffffffffffffffffffffffffffffffffffff16815260200183815260200180602001828103825283818151815260200191508051906020019080838360005b8381101561225757808201518184015260208101905061223c565b50505050905090810190601f1680156122845780820380516001836020036101000a031916815260200191505b5095505050505050602060405180830381600087803b1580156122a657600080fd5b505af11580156122ba573d6000803e3d6000fd5b505050506040513d60208110156122d057600080fd5b8101908080519060200190929190505050905063150b7a027c0100000000000000000000000000000000000000000000000000000000027bffffffffffffffffffffffffffffffffffffffffffffffffffffffff1916817bffffffffffffffffffffffffffffffffffffffffffffffffffffffff19161491505b50949350505050565b60008083831115151561236557600080fd5b82840390508091505092915050565b600080828401905083811015151561238b57600080fd5b8091505092915050565b600080823b905060008111915050919050565b828054600181600116156101000203166002900490600052602060002090601f016020900481019282601f106123e957803560ff1916838001178555612417565b82800160010185558215612417579182015b828111156124165782358255916020019190600101906123fb565b5b50905061242491906124a8565b5090565b828054600181600116156101000203166002900490600052602060002090601f016020900481019282601f1061246957805160ff1916838001178555612497565b82800160010185558215612497579182015b8281111561249657825182559160200191906001019061247b565b5b5090506124a491906124a8565b5090565b6124ca91905b808211156124c65760008160009055506001016124ae565b5090565b905600a165627a7a72305820b90abe4cada525e49869c7fdef6295580e8a933f830a6622ff91c96f1122698d0029",
  "source": "pragma solidity ^0.4.24;\n\nimport './ERC721.sol';\n\ncontract CryptoBallers is ERC721 {\n\n    struct Baller {\n        string name;\n        uint level;\n        uint offenseSkill;\n        uint defenseSkill;\n        uint winCount;\n        uint lossCount;\n    }\n\n    address owner;\n    Baller[] public ballers;\n\n    // Mapping for if address has claimed their free baller\n    mapping(address => bool) public claimedFreeBaller;\n    \n    // Mapping who owns each baller\n    mapping(uint => address) public ballersOwners;\n    \n    //Number of ballers for each owner\n    mapping(address => uint) public ownersToNumberOfBallers;\n\n    // Fee for buying a baller\n    uint ballerFee = 0.10 ether;\n\n    /**\n    * @dev Ensures ownership of the specified token ID\n    * @param _tokenId uint256 ID of the token to check\n    */\n    modifier onlyOwnerOf(uint256 _tokenId) {\n        require(msg.sender == ballersOwners[_tokenId]);\n        _;\n    }\n\n    /**\n    * @dev Ensures ownership of contract\n    */\n    modifier onlyOwner() {\n        require(msg.sender == owner, \"Only owner is allowed\");\n        _;\n    }\n\n    /**\n    * @dev Ensures baller has level above specified level\n    * @param _level uint level that the baller needs to be above\n    * @param _ballerId uint ID of the Baller to check\n    */\n    modifier aboveLevel(uint _level, uint _ballerId) {\n        require(ballers[_ballerId].level > _level);\n        _;\n    }\n\n    constructor() public {\n        owner = msg.sender;\n    }\n\n    function getNumBallers() public view returns (uint) {\n        return ballers.length;\n    }\n\n    /**\n    * @dev Allows user to claim first free baller, ensure no address can claim more than one\n    */\n    function claimFreeBaller() public {\n        require(claimedFreeBaller[msg.sender] == false);\n        claimedFreeBaller[msg.sender] = true;\n        _createBaller(\"Free Baller\", 1, 30, 30);\n        ballersOwners[ballers.length - 1] = msg.sender;\n        ownersToNumberOfBallers[msg.sender]++;\n    }\n\n    /**\n    * @dev Allows user to buy baller with set attributes\n    */\n    function buyBaller() public payable {\n        require(msg.value >= ballerFee, \"Not enough ether to buy Baller\");\n        owner.transfer(ballerFee);\n        _createBaller(\"Bought Baller\", 1, 50, 50);\n        ballersOwners[ballers.length - 1] = msg.sender;\n        ownersToNumberOfBallers[msg.sender]++;\n    }\n\n    /**\n    * @dev Play a game with your baller and an opponent baller\n    * If your baller has more offensive skill than your opponent's defensive skill\n    * you win, your level goes up, the opponent loses, and vice versa.\n    * If you win and your baller reaches level 5, you are awarded a new baller with a mix of traits\n    * from your baller and your opponent's baller.\n    * @param _ballerId uint ID of the Baller initiating the game\n    * @param _opponentId uint ID that the baller needs to be above\n    */\n    function playBall(uint _ballerId, uint _opponentId) onlyOwnerOf(_ballerId) public {\n       if (ballers[_ballerId].offenseSkill*randomProbability() >= ballers[_opponentId].defenseSkill*(100 - randomProbability())) {\n           ballers[_ballerId].level++;\n           ballers[_ballerId].winCount++;\n           ballers[_ballerId].offenseSkill++;\n           ballers[_opponentId].lossCount++;\n           if (ballers[_ballerId].level == 5) {\n               (uint level, uint offense, uint defense) = _breedBallers(ballers[_ballerId], ballers[_opponentId]);\n               _createBaller(\"New Baller\", level, offense, defense);\n               ballersOwners[ballers.length - 1] = msg.sender;\n               ownersToNumberOfBallers[msg.sender]++;\n           }\n       } else {\n           ballers[_ballerId].lossCount++;\n           ballers[_opponentId].winCount++; \n           ballers[_opponentId].defenseSkill++;\n       }\n    }\n\n    /**\n    * @dev Changes the name of your baller if they are above level two\n    * @param _ballerId uint ID of the Baller who's name you want to change\n    * @param _newName string new name you want to give to your Baller\n    */\n    function changeName(uint _ballerId, string _newName) external aboveLevel(2, _ballerId) onlyOwnerOf(_ballerId) {\n        ballers[_ballerId].name = _newName;\n    }\n\n    /**\n   * @dev Creates a baller based on the params given, adds them to the Baller array and mints a token\n   * @param _name string name of the Baller\n   * @param _level uint level of the Baller\n   * @param _offenseSkill offensive skill of the Baller\n   * @param _defenseSkill defensive skill of the Baller\n   */\n    function _createBaller(string _name, uint _level, uint _offenseSkill, uint _defenseSkill) internal {\n        ballers.push(Baller(_name, _level, _offenseSkill, _defenseSkill, 0 , 0));\n    }\n\n    /**\n    * @dev Helper function for a new baller which averages the attributes of the level, attack, defense of the ballers\n    * @param _baller1 Baller first baller to average\n    * @param _baller2 Baller second baller to average\n    * @return tuple of level, attack and defense\n    */\n    function _breedBallers(Baller _baller1, Baller _baller2) internal pure returns (uint, uint, uint) {\n        uint level = (_baller1.level+(_baller2.level))/2;\n        uint attack = (_baller1.offenseSkill+(_baller2.offenseSkill))/2;\n        uint defense = (_baller1.defenseSkill+(_baller2.defenseSkill))/2;\n        return (level, attack, defense);\n\n    }\n    \n    function getBallersByOwner(address _owner) external view returns(uint[]) {\n        uint[] memory result = new uint[](ownersToNumberOfBallers[_owner]);\n        uint counter = 0;\n        for (uint i = 0; i < ballers.length; i++) {\n            if (ballersOwners[i] == _owner) {\n                result[counter] = i;\n                counter++;\n            }\n        }\n        return result;\n    }\n  \n  function randomProbability () private view returns(uint) {\n      return (uint(keccak256(abi.encodePacked(now, msg.sender))) % 100);\n  }\n}",
  "sourcePath": "C:/Users/keddi/Desktop/Blockgeeks Projects/AK_CryptoBallersGame/AK_CryptoBallersGame-ethereum/contracts/CryptoBallers.sol",
  "compiler": {
    "name": "solc",
    "version": "0.4.24+commit.e67f0147.Emscripten.clang"
  },
  "schemaVersion": "3.0.1",
  "updatedAt": "2019-02-27T14:51:55.231Z",
  "devdoc": {
    "methods": {
      "approve(address,uint256)": {
        "details": "Approves another address to transfer the given token ID The zero address indicates there is no approved address. There can only be one approved address per token at a given time. Can only be called by the token owner or an approved operator.",
        "params": {
          "to": "address to be approved for the given token ID",
          "tokenId": "uint256 ID of the token to be approved"
        }
      },
      "balanceOf(address)": {
        "details": "Gets the balance of the specified address",
        "params": {
          "owner": "address to query the balance of"
        },
        "return": "uint256 representing the amount owned by the passed address"
      },
      "buyBaller()": {
        "details": "Allows user to buy baller with set attributes"
      },
      "changeName(uint256,string)": {
        "details": "Changes the name of your baller if they are above level two",
        "params": {
          "_ballerId": "uint ID of the Baller who's name you want to change",
          "_newName": "string new name you want to give to your Baller"
        }
      },
      "claimFreeBaller()": {
        "details": "Allows user to claim first free baller, ensure no address can claim more than one"
      },
      "getApproved(uint256)": {
        "details": "Gets the approved address for a token ID, or zero if no address set Reverts if the token ID does not exist.",
        "params": {
          "tokenId": "uint256 ID of the token to query the approval of"
        },
        "return": "address currently approved for the given token ID"
      },
      "isApprovedForAll(address,address)": {
        "details": "Tells whether an operator is approved by a given owner",
        "params": {
          "operator": "operator address which you want to query the approval of",
          "owner": "owner address which you want to query the approval of"
        },
        "return": "bool whether the given operator is approved by the given owner"
      },
      "ownerOf(uint256)": {
        "details": "Gets the owner of the specified token ID",
        "params": {
          "tokenId": "uint256 ID of the token to query the owner of"
        },
        "return": "owner address currently marked as the owner of the given token ID"
      },
      "playBall(uint256,uint256)": {
        "details": "Play a game with your baller and an opponent baller If your baller has more offensive skill than your opponent's defensive skill you win, your level goes up, the opponent loses, and vice versa. If you win and your baller reaches level 5, you are awarded a new baller with a mix of traits from your baller and your opponent's baller.",
        "params": {
          "_ballerId": "uint ID of the Baller initiating the game",
          "_opponentId": "uint ID that the baller needs to be above"
        }
      },
      "safeTransferFrom(address,address,uint256)": {
        "details": "Safely transfers the ownership of a given token ID to another address If the target address is a contract, it must implement `onERC721Received`, which is called upon a safe transfer, and return the magic value `bytes4(keccak256(\"onERC721Received(address,address,uint256,bytes)\"))`; otherwise, the transfer is reverted.   * Requires the msg sender to be the owner, approved, or operator",
        "params": {
          "from": "current owner of the token",
          "to": "address to receive the ownership of the given token ID",
          "tokenId": "uint256 ID of the token to be transferred"
        }
      },
      "safeTransferFrom(address,address,uint256,bytes)": {
        "details": "Safely transfers the ownership of a given token ID to another address If the target address is a contract, it must implement `onERC721Received`, which is called upon a safe transfer, and return the magic value `bytes4(keccak256(\"onERC721Received(address,address,uint256,bytes)\"))`; otherwise, the transfer is reverted. Requires the msg sender to be the owner, approved, or operator",
        "params": {
          "_data": "bytes data to send along with a safe transfer check",
          "from": "current owner of the token",
          "to": "address to receive the ownership of the given token ID",
          "tokenId": "uint256 ID of the token to be transferred"
        }
      },
      "setApprovalForAll(address,bool)": {
        "details": "Sets or unsets the approval of a given operator An operator is allowed to transfer all tokens of the sender on their behalf",
        "params": {
          "approved": "representing the status of the approval to be set",
          "to": "operator address to set the approval"
        }
      },
      "supportsInterface(bytes4)": {
        "details": "implement supportsInterface(bytes4) using a lookup table"
      },
      "transferFrom(address,address,uint256)": {
        "details": "Transfers the ownership of a given token ID to another address Usage of this method is discouraged, use `safeTransferFrom` whenever possible Requires the msg sender to be the owner, approved, or operator",
        "params": {
          "from": "current owner of the token",
          "to": "address to receive the ownership of the given token ID",
          "tokenId": "uint256 ID of the token to be transferred"
        }
      }
    }
  },
  "userdoc": {
    "methods": {}
  }
}